{
  "transactions": [
    {
      "hash": "0xed7180170f5b9b5d31eb71f7982dbd11bda6e18d66e726c78fc80526c96d440d",
      "transactionType": "CALL",
      "contractName": null,
      "contractAddress": "0x22f2800aee94c9e57d76981bc13e7a3760d396d9",
      "function": "wrapPresentTest(address[],string,string,(address,uint256)[])",
      "arguments": [
        "[]",
        "Public Demo",
        "Anyone can unwrap",
        "[(0x0000000000000000000000000000000000000000, 10000000000000000)]"
      ],
      "transaction": {
        "from": "0x1840fcd5a8cc90f18d320477c691a038aa800b6b",
        "to": "0x22f2800aee94c9e57d76981bc13e7a3760d396d9",
        "gas": "0x808d6",
        "value": "0x2386f26fc10000",
        "input": "0x2dc2bada000000000000000000000000000000000000000000000000000000000000008000000000000000000000000000000000000000000000000000000000000000a000000000000000000000000000000000000000000000000000000000000000e000000000000000000000000000000000000000000000000000000000000001200000000000000000000000000000000000000000000000000000000000000000000000000000000000000000000000000000000000000000000000000000000b5075626c69632044656d6f0000000000000000000000000000000000000000000000000000000000000000000000000000000000000000000000000000000011416e796f6e652063616e20756e7772617000000000000000000000000000000000000000000000000000000000000000000000000000000000000000000000010000000000000000000000000000000000000000000000000000000000000000000000000000000000000000000000000000000000000000002386f26fc10000",
        "nonce": "0x9",
        "chainId": "0x66eee"
      },
      "additionalContracts": [],
      "isFixedGasLimit": false
    }
  ],
  "receipts": [
    {
      "status": "0x1",
      "cumulativeGasUsed": "0x61aca",
      "logs": [
        {
          "address": "0xff1e6ed2d485a5e10bb1bd28191a3fba68cb9d72",
          "topics": [
            "0xddf252ad1be2c89b69c2b068fc378daa952ba7f163c4a11628f55a4df523b3ef",
            "0x0000000000000000000000000000000000000000000000000000000000000000",
            "0x0000000000000000000000001840fcd5a8cc90f18d320477c691a038aa800b6b",
            "0x7ece4cf30b0bc299363c91eb0a462e3f9482ef37086d5c237c38b606857a9944"
          ],
          "data": "0x",
          "blockHash": "0xa4c28fd527333d0cb213fb05b5661faabd98d0668bbe24d3e50a56ab252568e3",
          "blockNumber": "0xad6bfbe",
          "blockTimestamp": "0x6898344e",
          "transactionHash": "0xed7180170f5b9b5d31eb71f7982dbd11bda6e18d66e726c78fc80526c96d440d",
          "transactionIndex": "0x0",
          "logIndex": "0x0",
          "removed": false
        },
        {
          "address": "0x22f2800aee94c9e57d76981bc13e7a3760d396d9",
          "topics": [
            "0xe4315bd3cfeaa8bf062bc63380c6e2ee16ee654651b8b224ac3473226b1d2658",
            "0x7ece4cf30b0bc299363c91eb0a462e3f9482ef37086d5c237c38b606857a9944"
          ],
          "data": "0x0000000000000000000000001840fcd5a8cc90f18d320477c691a038aa800b6b",
          "blockHash": "0xa4c28fd527333d0cb213fb05b5661faabd98d0668bbe24d3e50a56ab252568e3",
          "blockNumber": "0xad6bfbe",
          "blockTimestamp": "0x6898344e",
          "transactionHash": "0xed7180170f5b9b5d31eb71f7982dbd11bda6e18d66e726c78fc80526c96d440d",
          "transactionIndex": "0x0",
          "logIndex": "0x1",
          "removed": false
        }
      ],
      "logsBloom": "0x00000000000000000000000100000000000000000000000000000000000000000000000000000200000000000000000000000000000000000000000000000000000800000000000000000008000000000000000000000000000000000000000000000000020000000000000000000800000200000000020000000010000000120000000000000800000000000400000000000000000000000000020000000000000000000000000000000000000000000008000000000000000000000000000000000002000000000000000000000000000000000100000000008000000021000000000000000000080000000000000000000000000000000000000000000000",
      "type": "0x2",
      "transactionHash": "0xed7180170f5b9b5d31eb71f7982dbd11bda6e18d66e726c78fc80526c96d440d",
      "transactionIndex": "0x0",
      "blockHash": "0xa4c28fd527333d0cb213fb05b5661faabd98d0668bbe24d3e50a56ab252568e3",
      "blockNumber": "0xad6bfbe",
      "gasUsed": "0x61aca",
      "effectiveGasPrice": "0x1916beb",
      "blobGasPrice": "0x1",
      "from": "0x1840fcd5a8cc90f18d320477c691a038aa800b6b",
      "to": "0x22f2800aee94c9e57d76981bc13e7a3760d396d9",
      "contractAddress": null
    }
  ],
  "libraries": [],
  "pending": [],
  "returns": {},
  "timestamp": 1754805326,
  "chain": 421614,
  "commit": "0d324a2"
}