{
  "transactions": [
    {
      "hash": "0x046df842db211206ba14c5f634650efa5ab8ebf19a9a704ef2ad1e1b3a8d088d",
      "transactionType": "CALL",
      "contractName": null,
      "contractAddress": "0x3b3cf7ee8dbcddd8b8451e38269d982f351ca3db",
      "function": "wrapPresentTest(address[],string,string,(address,uint256)[])",
      "arguments": [
        "[]",
        "Public Demo",
        "Anyone can unwrap",
        "[(0x0000000000000000000000000000000000000000, 10000000000000000)]"
      ],
      "transaction": {
        "from": "0x1840fcd5a8cc90f18d320477c691a038aa800b6b",
        "to": "0x3b3cf7ee8dbcddd8b8451e38269d982f351ca3db",
        "gas": "0x71fee",
        "value": "0x2386f26fc10000",
        "input": "0x2dc2bada000000000000000000000000000000000000000000000000000000000000008000000000000000000000000000000000000000000000000000000000000000a000000000000000000000000000000000000000000000000000000000000000e000000000000000000000000000000000000000000000000000000000000001200000000000000000000000000000000000000000000000000000000000000000000000000000000000000000000000000000000000000000000000000000000b5075626c69632044656d6f0000000000000000000000000000000000000000000000000000000000000000000000000000000000000000000000000000000011416e796f6e652063616e20756e7772617000000000000000000000000000000000000000000000000000000000000000000000000000000000000000000000010000000000000000000000000000000000000000000000000000000000000000000000000000000000000000000000000000000000000000002386f26fc10000",
        "nonce": "0x6",
        "chainId": "0x66eee"
      },
      "additionalContracts": [],
      "isFixedGasLimit": false
    }
  ],
  "receipts": [
    {
      "status": "0x1",
      "cumulativeGasUsed": "0x76b0d",
      "logs": [
        {
          "address": "0x8260bb51092f058f4f234407f1075f09ab5832c9",
          "topics": [
            "0xddf252ad1be2c89b69c2b068fc378daa952ba7f163c4a11628f55a4df523b3ef",
            "0x0000000000000000000000000000000000000000000000000000000000000000",
            "0x0000000000000000000000001840fcd5a8cc90f18d320477c691a038aa800b6b",
            "0x52df11f881a35386964c5063aade6649a7d79af341b3969e20655c3cd3af9187"
          ],
          "data": "0x",
          "blockHash": "0x18ed38c82ff469af6e7b4555e80afdcb4cd6c078def1bcdba08e99aa12c792bf",
          "blockNumber": "0xae097fe",
          "transactionHash": "0x046df842db211206ba14c5f634650efa5ab8ebf19a9a704ef2ad1e1b3a8d088d",
          "transactionIndex": "0x2",
          "logIndex": "0x4",
          "removed": false
        },
        {
          "address": "0x3b3cf7ee8dbcddd8b8451e38269d982f351ca3db",
          "topics": [
            "0xe4315bd3cfeaa8bf062bc63380c6e2ee16ee654651b8b224ac3473226b1d2658",
            "0x52df11f881a35386964c5063aade6649a7d79af341b3969e20655c3cd3af9187"
          ],
          "data": "0x0000000000000000000000001840fcd5a8cc90f18d320477c691a038aa800b6b",
          "blockHash": "0x18ed38c82ff469af6e7b4555e80afdcb4cd6c078def1bcdba08e99aa12c792bf",
          "blockNumber": "0xae097fe",
          "transactionHash": "0x046df842db211206ba14c5f634650efa5ab8ebf19a9a704ef2ad1e1b3a8d088d",
          "transactionIndex": "0x2",
          "logIndex": "0x5",
          "removed": false
        }
      ],
      "logsBloom": "0x00000000000000000000000000000000000000000000000000000000000000000000000000000000000000000004000000000000000000000000000000000000000000000000000000000008100000000000000000000000000000000000000000000000020000008000002000000800000200000000000000000010000000020000000000000000000000000000000000000000000000000000020000000000000000000000000000000000000100000000001000000000000000000000000000000002000000000000000000000000000000800100000000008000000020000000000000000000080000000000000000002000000000000000000000004000",
      "type": "0x2",
      "transactionHash": "0x046df842db211206ba14c5f634650efa5ab8ebf19a9a704ef2ad1e1b3a8d088d",
      "transactionIndex": "0x2",
      "blockHash": "0x18ed38c82ff469af6e7b4555e80afdcb4cd6c078def1bcdba08e99aa12c792bf",
      "blockNumber": "0xae097fe",
      "gasUsed": "0x565f1",
      "effectiveGasPrice": "0x5f5e100",
      "from": "0x1840fcd5a8cc90f18d320477c691a038aa800b6b",
      "to": "0x3b3cf7ee8dbcddd8b8451e38269d982f351ca3db",
      "contractAddress": null,
      "gasUsedForL1": "0x0",
      "l1BlockNumber": "0x8898e9",
      "timeboosted": false
    }
  ],
  "libraries": [],
  "pending": [],
  "returns": {},
  "timestamp": 1754806228,
  "chain": 421614,
  "commit": "0d324a2"
}