{
  "transactions": [
    {
      "hash": "0xf8236ab77797c087f02e333484f1faafc4cf095aa61315ef097b6c9651c9a2cd",
      "transactionType": "CALL",
      "contractName": null,
      "contractAddress": "0x3b3cf7ee8dbcddd8b8451e38269d982f351ca3db",
      "function": "wrapPresent(address[],(address,uint256)[])",
      "arguments": [
        "[0x1840fCD5a8cC90F18d320477c691A038aa800B6B]",
        "[(0x0000000000000000000000000000000000000000, 500000000000000)]"
      ],
      "transaction": {
        "from": "0x1840fcd5a8cc90f18d320477c691a038aa800b6b",
        "to": "0x3b3cf7ee8dbcddd8b8451e38269d982f351ca3db",
        "value": "0x1c6bf52634000",
        "input": "0x4a6499f80000000000000000000000000000000000000000000000000000000000000040000000000000000000000000000000000000000000000000000000000000008000000000000000000000000000000000000000000000000000000000000000010000000000000000000000001840fcd5a8cc90f18d320477c691a038aa800b6b000000000000000000000000000000000000000000000000000000000000000100000000000000000000000000000000000000000000000000000000000000000000000000000000000000000000000000000000000000000001c6bf52634000",
        "nonce": "0x7",
        "chainId": "0x66eee"
      },
      "additionalContracts": [],
      "isFixedGasLimit": false
    },
    {
      "hash": null,
      "transactionType": "CALL",
      "contractName": null,
      "contractAddress": "0x3b3cf7ee8dbcddd8b8451e38269d982f351ca3db",
      "function": "unwrapPresent(bytes32)",
      "arguments": [
        "0x14eaf9521fbe39b718d6e8b45b5db5df747b366ba76f3d9970f53e0e9ce82352"
      ],
      "transaction": {
        "from": "0x1840fcd5a8cc90f18d320477c691a038aa800b6b",
        "to": "0x3b3cf7ee8dbcddd8b8451e38269d982f351ca3db",
        "value": "0x0",
        "input": "0xe93b7e0514eaf9521fbe39b718d6e8b45b5db5df747b366ba76f3d9970f53e0e9ce82352",
        "nonce": "0x8",
        "chainId": "0x66eee"
      },
      "additionalContracts": [],
      "isFixedGasLimit": false
    },
    {
      "hash": null,
      "transactionType": "CALL",
      "contractName": null,
      "contractAddress": "0x3b3cf7ee8dbcddd8b8451e38269d982f351ca3db",
      "function": "wrapPresent(address[],(address,uint256)[])",
      "arguments": [
        "[0x1840fCD5a8cC90F18d320477c691A038aa800B6B]",
        "[(0x0000000000000000000000000000000000000000, 400000000000000)]"
      ],
      "transaction": {
        "from": "0x1840fcd5a8cc90f18d320477c691a038aa800b6b",
        "to": "0x3b3cf7ee8dbcddd8b8451e38269d982f351ca3db",
        "value": "0x16bcc41e90000",
        "input": "0x4a6499f80000000000000000000000000000000000000000000000000000000000000040000000000000000000000000000000000000000000000000000000000000008000000000000000000000000000000000000000000000000000000000000000010000000000000000000000001840fcd5a8cc90f18d320477c691a038aa800b6b0000000000000000000000000000000000000000000000000000000000000001000000000000000000000000000000000000000000000000000000000000000000000000000000000000000000000000000000000000000000016bcc41e90000",
        "nonce": "0x9",
        "chainId": "0x66eee"
      },
      "additionalContracts": [],
      "isFixedGasLimit": false
    },
    {
      "hash": null,
      "transactionType": "CALL",
      "contractName": null,
      "contractAddress": "0x3b3cf7ee8dbcddd8b8451e38269d982f351ca3db",
      "function": "takeBack(bytes32)",
      "arguments": [
        "0x7ea7c16233e5aab0708817dad3a38ccb3bce718d9c3fe2f65f100f5bceb5a276"
      ],
      "transaction": {
        "from": "0x1840fcd5a8cc90f18d320477c691a038aa800b6b",
        "to": "0x3b3cf7ee8dbcddd8b8451e38269d982f351ca3db",
        "value": "0x0",
        "input": "0x0d6e98c67ea7c16233e5aab0708817dad3a38ccb3bce718d9c3fe2f65f100f5bceb5a276",
        "nonce": "0xa",
        "chainId": "0x66eee"
      },
      "additionalContracts": [],
      "isFixedGasLimit": false
    },
    {
      "hash": null,
      "transactionType": "CALL",
      "contractName": null,
      "contractAddress": "0x3b3cf7ee8dbcddd8b8451e38269d982f351ca3db",
      "function": "wrapPresent(address[],(address,uint256)[])",
      "arguments": [
        "[]",
        "[(0x0000000000000000000000000000000000000000, 300000000000000)]"
      ],
      "transaction": {
        "from": "0x1840fcd5a8cc90f18d320477c691a038aa800b6b",
        "to": "0x3b3cf7ee8dbcddd8b8451e38269d982f351ca3db",
        "value": "0x110d9316ec000",
        "input": "0x4a6499f800000000000000000000000000000000000000000000000000000000000000400000000000000000000000000000000000000000000000000000000000000060000000000000000000000000000000000000000000000000000000000000000000000000000000000000000000000000000000000000000000000000000000010000000000000000000000000000000000000000000000000000000000000000000000000000000000000000000000000000000000000000000110d9316ec000",
        "nonce": "0xb",
        "chainId": "0x66eee"
      },
      "additionalContracts": [],
      "isFixedGasLimit": false
    },
    {
      "hash": null,
      "transactionType": "CALL",
      "contractName": null,
      "contractAddress": "0x3b3cf7ee8dbcddd8b8451e38269d982f351ca3db",
      "function": "unwrapPresent(bytes32)",
      "arguments": [
        "0x60952e9233da956121d3023ca4eea0fb74ae8dbb545b45580c589b183673fd99"
      ],
      "transaction": {
        "from": "0x1840fcd5a8cc90f18d320477c691a038aa800b6b",
        "to": "0x3b3cf7ee8dbcddd8b8451e38269d982f351ca3db",
        "value": "0x0",
        "input": "0xe93b7e0560952e9233da956121d3023ca4eea0fb74ae8dbb545b45580c589b183673fd99",
        "nonce": "0xc",
        "chainId": "0x66eee"
      },
      "additionalContracts": [],
      "isFixedGasLimit": false
    },
    {
      "hash": null,
      "transactionType": "CALL",
      "contractName": null,
      "contractAddress": "0x3b3cf7ee8dbcddd8b8451e38269d982f351ca3db",
      "function": "wrapPresent(address[],(address,uint256)[])",
      "arguments": [
        "[0x1840fCD5a8cC90F18d320477c691A038aa800B6B]",
        "[(0x0000000000000000000000000000000000000000, 200000000000000)]"
      ],
      "transaction": {
        "from": "0x1840fcd5a8cc90f18d320477c691a038aa800b6b",
        "to": "0x3b3cf7ee8dbcddd8b8451e38269d982f351ca3db",
        "value": "0xb5e620f48000",
        "input": "0x4a6499f80000000000000000000000000000000000000000000000000000000000000040000000000000000000000000000000000000000000000000000000000000008000000000000000000000000000000000000000000000000000000000000000010000000000000000000000001840fcd5a8cc90f18d320477c691a038aa800b6b000000000000000000000000000000000000000000000000000000000000000100000000000000000000000000000000000000000000000000000000000000000000000000000000000000000000000000000000000000000000b5e620f48000",
        "nonce": "0xd",
        "chainId": "0x66eee"
      },
      "additionalContracts": [],
      "isFixedGasLimit": false
    }
  ],
  "receipts": [
    {
      "status": "0x1",
      "cumulativeGasUsed": "0x7a5f7",
      "logs": [
        {
          "address": "0x8260bb51092f058f4f234407f1075f09ab5832c9",
          "topics": [
            "0xddf252ad1be2c89b69c2b068fc378daa952ba7f163c4a11628f55a4df523b3ef",
            "0x0000000000000000000000000000000000000000000000000000000000000000",
            "0x0000000000000000000000001840fcd5a8cc90f18d320477c691a038aa800b6b",
            "0x6550b2ffd4d99da9ad9dcb603aa4d3a01ab1b4ead5b644e5f3e1121e6cbe10aa"
          ],
          "data": "0x",
          "blockHash": "0x40caa56be8e99e7a33c0252f322e9825b78999dc80bb2ae4bc03c8f075af4640",
          "blockNumber": "0xae15298",
          "transactionHash": "0xf8236ab77797c087f02e333484f1faafc4cf095aa61315ef097b6c9651c9a2cd",
          "transactionIndex": "0x3",
          "logIndex": "0x5",
          "removed": false
        },
        {
          "address": "0x3b3cf7ee8dbcddd8b8451e38269d982f351ca3db",
          "topics": [
            "0xf57d75a06786ec46ba529c7c6a4a8c5f0c1eae07a3a01fa6c75da0320a9f7588",
            "0x6550b2ffd4d99da9ad9dcb603aa4d3a01ab1b4ead5b644e5f3e1121e6cbe10aa"
          ],
          "data": "0x0000000000000000000000001840fcd5a8cc90f18d320477c691a038aa800b6b",
          "blockHash": "0x40caa56be8e99e7a33c0252f322e9825b78999dc80bb2ae4bc03c8f075af4640",
          "blockNumber": "0xae15298",
          "transactionHash": "0xf8236ab77797c087f02e333484f1faafc4cf095aa61315ef097b6c9651c9a2cd",
          "transactionIndex": "0x3",
          "logIndex": "0x6",
          "removed": false
        }
      ],
      "logsBloom": "0x0000000000000000000000000000000000000000000000000000000000000000000000000000000000000000000000000000000000000000000000000000000000000000000000000000000810000008000000000000000000000000000000000000000002000000a000002000000800000200000000000000000010000000000000000000000000000000000002000000000000000000000000020000000000000000000000000000000000000100000000001000000100000000000000000000000002000001000000001000000000000000000100000000000000000020000000000000000000000000000000000000002000000000000000000000000000",
      "type": "0x2",
      "transactionHash": "0xf8236ab77797c087f02e333484f1faafc4cf095aa61315ef097b6c9651c9a2cd",
      "transactionIndex": "0x3",
      "blockHash": "0x40caa56be8e99e7a33c0252f322e9825b78999dc80bb2ae4bc03c8f075af4640",
      "blockNumber": "0xae15298",
      "gasUsed": "0x4a2c4",
      "effectiveGasPrice": "0x5f5e100",
      "from": "0x1840fcd5a8cc90f18d320477c691a038aa800b6b",
      "to": "0x3b3cf7ee8dbcddd8b8451e38269d982f351ca3db",
      "contractAddress": null,
      "gasUsedForL1": "0x2",
      "l1BlockNumber": "0x889cce",
      "timeboosted": false
    }
  ],
  "libraries": [],
  "pending": [],
  "returns": {},
  "timestamp": 1754818202,
  "chain": 421614,
  "commit": "bc12e55"
}