{
  "transactions": [
    {
      "hash": "0x8047e7c651e6f83a40f3883021819f89b98cb90a655a73c2b08b7d4c2cb03a95",
      "transactionType": "CALL",
      "contractName": null,
      "contractAddress": "0x3b3cf7ee8dbcddd8b8451e38269d982f351ca3db",
      "function": "wrapPresent(address[],(address,uint256)[])",
      "arguments": [
        "[0x1234567890123456789012345678901234567890]",
        "[(0x0000000000000000000000000000000000000000, 10000000000000000)]"
      ],
      "transaction": {
        "from": "0x1840fcd5a8cc90f18d320477c691a038aa800b6b",
        "to": "0x3b3cf7ee8dbcddd8b8451e38269d982f351ca3db",
        "gas": "0x4a455",
        "value": "0x2386f26fc10000",
        "input": "0x4a6499f8000000000000000000000000000000000000000000000000000000000000004000000000000000000000000000000000000000000000000000000000000000800000000000000000000000000000000000000000000000000000000000000001000000000000000000000000123456789012345678901234567890123456789000000000000000000000000000000000000000000000000000000000000000010000000000000000000000000000000000000000000000000000000000000000000000000000000000000000000000000000000000000000002386f26fc10000",
        "nonce": "0x1",
        "chainId": "0x66eee"
      },
      "additionalContracts": [],
      "isFixedGasLimit": false
    }
  ],
  "receipts": [
    {
      "status": "0x1",
      "cumulativeGasUsed": "0x37ead",
      "logs": [
        {
          "address": "0x3b3cf7ee8dbcddd8b8451e38269d982f351ca3db",
          "topics": [
            "0xf57d75a06786ec46ba529c7c6a4a8c5f0c1eae07a3a01fa6c75da0320a9f7588",
            "0x62ca628ba2a7c3859a874a0656c2130158f570f156a5e819ac13999af8e52407"
          ],
          "data": "0x0000000000000000000000001840fcd5a8cc90f18d320477c691a038aa800b6b",
          "blockHash": "0xbcc679b015954ca8fa4a59b580fd03129e396682d91e7542c9b762ceee202a1f",
          "blockNumber": "0xad6a257",
          "blockTimestamp": "0x6895b12a",
          "transactionHash": "0x8047e7c651e6f83a40f3883021819f89b98cb90a655a73c2b08b7d4c2cb03a95",
          "transactionIndex": "0x0",
          "logIndex": "0x0",
          "removed": false
        }
      ],
      "logsBloom": "0x0000000000000000000000000000000000000000000000000000000002000000000000000000000000000000000400000000000000000000000000000000000000000000000000000000000000000000000000000000000000000000000020000000000000000000a000002000000000000000000000000000000000000000000000000000000000000000000002000000000000000000000000000000000000000000000000000000000000000100000000000000000100000000000000000000000000000000000000000000000000000000000000000000000000000000000000000000000000000000000000000000000000000000000000000000000000",
      "type": "0x2",
      "transactionHash": "0x8047e7c651e6f83a40f3883021819f89b98cb90a655a73c2b08b7d4c2cb03a95",
      "transactionIndex": "0x0",
      "blockHash": "0xbcc679b015954ca8fa4a59b580fd03129e396682d91e7542c9b762ceee202a1f",
      "blockNumber": "0xad6a257",
      "gasUsed": "0x37ead",
      "effectiveGasPrice": "0x49f8e1f",
      "blobGasPrice": "0x1",
      "from": "0x1840fcd5a8cc90f18d320477c691a038aa800b6b",
      "to": "0x3b3cf7ee8dbcddd8b8451e38269d982f351ca3db",
      "contractAddress": null
    }
  ],
  "libraries": [],
  "pending": [],
  "returns": {},
  "timestamp": 1754640682,
  "chain": 421614,
  "commit": null
}