{
  "transactions": [
    {
      "hash": "0x08e97084005e90d9b8e89f26bd85e50439d5430285b6dfeecd3985b89614c325",
      "transactionType": "CALL",
      "contractName": null,
      "contractAddress": "0x22f2800aee94c9e57d76981bc13e7a3760d396d9",
      "function": "wrapPresent(address[],(address,uint256)[])",
      "arguments": [
        "[0x1234567890123456789012345678901234567890]",
        "[(0x0000000000000000000000000000000000000000, 10000000000000000)]"
      ],
      "transaction": {
        "from": "0x1840fcd5a8cc90f18d320477c691a038aa800b6b",
        "to": "0x22f2800aee94c9e57d76981bc13e7a3760d396d9",
        "gas": "0x4a455",
        "value": "0x2386f26fc10000",
        "input": "0x4a6499f8000000000000000000000000000000000000000000000000000000000000004000000000000000000000000000000000000000000000000000000000000000800000000000000000000000000000000000000000000000000000000000000001000000000000000000000000123456789012345678901234567890123456789000000000000000000000000000000000000000000000000000000000000000010000000000000000000000000000000000000000000000000000000000000000000000000000000000000000000000000000000000000000002386f26fc10000",
        "nonce": "0x3",
        "chainId": "0x66eee"
      },
      "additionalContracts": [],
      "isFixedGasLimit": false
    }
  ],
  "receipts": [
    {
      "status": "0x1",
      "cumulativeGasUsed": "0x37ead",
      "logs": [
        {
          "address": "0x22f2800aee94c9e57d76981bc13e7a3760d396d9",
          "topics": [
            "0xf57d75a06786ec46ba529c7c6a4a8c5f0c1eae07a3a01fa6c75da0320a9f7588",
            "0x6c2e907c4adfc93398838fdf6a47ec09e5db2fe8cd89c8d798901b2f49bf49c8"
          ],
          "data": "0x0000000000000000000000001840fcd5a8cc90f18d320477c691a038aa800b6b",
          "blockHash": "0x3425f123b6d4926438125b7c10645841520ea470c2c09bf46478dd5d2c0440b8",
          "blockNumber": "0xad6a9c8",
          "blockTimestamp": "0x6895b540",
          "transactionHash": "0x08e97084005e90d9b8e89f26bd85e50439d5430285b6dfeecd3985b89614c325",
          "transactionIndex": "0x0",
          "logIndex": "0x0",
          "removed": false
        }
      ],
      "logsBloom": "0x00000000000000000000000000000000000000000000000000000000000000000000000000000200000000000000000000000000000000000000000000000000000000000000000000000000000800000000000000000000000002000000000000000000000000002000000000000000000000000000020000000000000000000000000000000800000000000002000000000000000000000000000000000000000000000000000000000000000000000000000000000100000000000000000000000000000000000000000000000000000000000000000000000000000000000000000000000000000000000000000000000000000000000000200000000000",
      "type": "0x2",
      "transactionHash": "0x08e97084005e90d9b8e89f26bd85e50439d5430285b6dfeecd3985b89614c325",
      "transactionIndex": "0x0",
      "blockHash": "0x3425f123b6d4926438125b7c10645841520ea470c2c09bf46478dd5d2c0440b8",
      "blockNumber": "0xad6a9c8",
      "gasUsed": "0x37ead",
      "effectiveGasPrice": "0x37e7137",
      "blobGasPrice": "0x1",
      "from": "0x1840fcd5a8cc90f18d320477c691a038aa800b6b",
      "to": "0x22f2800aee94c9e57d76981bc13e7a3760d396d9",
      "contractAddress": null
    }
  ],
  "libraries": [],
  "pending": [],
  "returns": {},
  "timestamp": 1754641729,
  "chain": 421614,
  "commit": null
}