{
  "transactions": [
    {
      "hash": "0x053fb082366464a1f56388f1f643bbcc41a86bd4cd71e25eafff88b4c28ed32a",
      "transactionType": "CALL",
      "contractName": null,
      "contractAddress": "0x3b3cf7ee8dbcddd8b8451e38269d982f351ca3db",
      "function": "wrapPresent(address[],(address,uint256)[])",
      "arguments": [
        "[0x1234567890123456789012345678901234567890]",
        "[(0x0000000000000000000000000000000000000000, 10000000000000000)]"
      ],
      "transaction": {
        "from": "0x1840fcd5a8cc90f18d320477c691a038aa800b6b",
        "to": "0x3b3cf7ee8dbcddd8b8451e38269d982f351ca3db",
        "gas": "0x4a455",
        "value": "0x2386f26fc10000",
        "input": "0x4a6499f8000000000000000000000000000000000000000000000000000000000000004000000000000000000000000000000000000000000000000000000000000000800000000000000000000000000000000000000000000000000000000000000001000000000000000000000000123456789012345678901234567890123456789000000000000000000000000000000000000000000000000000000000000000010000000000000000000000000000000000000000000000000000000000000000000000000000000000000000000000000000000000000000002386f26fc10000",
        "nonce": "0x1",
        "chainId": "0x66eee"
      },
      "additionalContracts": [],
      "isFixedGasLimit": false
    }
  ],
  "receipts": [
    {
      "status": "0x1",
      "cumulativeGasUsed": "0x37ead",
      "logs": [
        {
          "address": "0x3b3cf7ee8dbcddd8b8451e38269d982f351ca3db",
          "topics": [
            "0xf57d75a06786ec46ba529c7c6a4a8c5f0c1eae07a3a01fa6c75da0320a9f7588",
            "0x3bf45c0a6430441a5027a1bfb4e6711e5724bd431f106f4f5db599dcbd4523bd"
          ],
          "data": "0x0000000000000000000000001840fcd5a8cc90f18d320477c691a038aa800b6b",
          "blockHash": "0x7c1b0fff0d5db3ff699322a81e00e1591b23e294fb90818d29ad142521e16402",
          "blockNumber": "0xad6a9c6",
          "blockTimestamp": "0x6895b38b",
          "transactionHash": "0x053fb082366464a1f56388f1f643bbcc41a86bd4cd71e25eafff88b4c28ed32a",
          "transactionIndex": "0x0",
          "logIndex": "0x0",
          "removed": false
        }
      ],
      "logsBloom": "0x0000000000000000000000000000000000000000000000000000000000000000000000000000000000000000000000000000000000000000000000000000000000000000000000000000000000000000000000000000000000000000000000000000000000000000a000002000000000000000000000000000000000000000000000000000000000000000000002000000000000000000000000000000000000000000000000000000000000000100000000000008000500000000000000000000000000000000000000000000000000000000000000000400000000000000000000000000000000000000000000000000000000000000000000000000000000",
      "type": "0x2",
      "transactionHash": "0x053fb082366464a1f56388f1f643bbcc41a86bd4cd71e25eafff88b4c28ed32a",
      "transactionIndex": "0x0",
      "blockHash": "0x7c1b0fff0d5db3ff699322a81e00e1591b23e294fb90818d29ad142521e16402",
      "blockNumber": "0xad6a9c6",
      "gasUsed": "0x37ead",
      "effectiveGasPrice": "0x4904046",
      "blobGasPrice": "0x1",
      "from": "0x1840fcd5a8cc90f18d320477c691a038aa800b6b",
      "to": "0x3b3cf7ee8dbcddd8b8451e38269d982f351ca3db",
      "contractAddress": null
    }
  ],
  "libraries": [],
  "pending": [],
  "returns": {},
  "timestamp": 1754641292,
  "chain": 421614,
  "commit": null
}