{
  "transactions": [
    {
      "hash": "0xa58b2e0bea8abf9c3fb6826103d641a100adaea7adc6e549e0005f1ba856f5d9",
      "transactionType": "CALL",
      "contractName": null,
      "contractAddress": "0x22f2800aee94c9e57d76981bc13e7a3760d396d9",
      "function": "wrapPresentTest(address[],string,string,(address,uint256)[])",
      "arguments": [
        "[0x0000000000000000000000000000000000000000]",
        "Demo Gift",
        "On local fork with NFTs",
        "[(0x0000000000000000000000000000000000000000, 10000000000000000)]"
      ],
      "transaction": {
        "from": "0x1840fcd5a8cc90f18d320477c691a038aa800b6b",
        "to": "0x22f2800aee94c9e57d76981bc13e7a3760d396d9",
        "gas": "0x9f36e",
        "value": "0x2386f26fc10000",
        "input": "0x2dc2bada000000000000000000000000000000000000000000000000000000000000008000000000000000000000000000000000000000000000000000000000000000c00000000000000000000000000000000000000000000000000000000000000100000000000000000000000000000000000000000000000000000000000000014000000000000000000000000000000000000000000000000000000000000000010000000000000000000000000000000000000000000000000000000000000000000000000000000000000000000000000000000000000000000000000000000944656d6f2047696674000000000000000000000000000000000000000000000000000000000000000000000000000000000000000000000000000000000000174f6e206c6f63616c20666f726b2077697468204e46547300000000000000000000000000000000000000000000000000000000000000000000000000000000010000000000000000000000000000000000000000000000000000000000000000000000000000000000000000000000000000000000000000002386f26fc10000",
        "nonce": "0x8",
        "chainId": "0x66eee"
      },
      "additionalContracts": [],
      "isFixedGasLimit": false
    }
  ],
  "receipts": [
    {
      "status": "0x1",
      "cumulativeGasUsed": "0x7942b",
      "logs": [
        {
          "address": "0xff1e6ed2d485a5e10bb1bd28191a3fba68cb9d72",
          "topics": [
            "0xddf252ad1be2c89b69c2b068fc378daa952ba7f163c4a11628f55a4df523b3ef",
            "0x0000000000000000000000000000000000000000000000000000000000000000",
            "0x0000000000000000000000001840fcd5a8cc90f18d320477c691a038aa800b6b",
            "0x70a18f80dd4ae3fb45451b72c56f4ca90773fe79ff8edcf9aff774c1ec5b6403"
          ],
          "data": "0x",
          "blockHash": "0x51ca6dcbf729e9db3b6603b7a2c303137f42019192f3494d7a95dc5df98958db",
          "blockNumber": "0xad6bfbd",
          "blockTimestamp": "0x68982aca",
          "transactionHash": "0xa58b2e0bea8abf9c3fb6826103d641a100adaea7adc6e549e0005f1ba856f5d9",
          "transactionIndex": "0x0",
          "logIndex": "0x0",
          "removed": false
        },
        {
          "address": "0x22f2800aee94c9e57d76981bc13e7a3760d396d9",
          "topics": [
            "0xe4315bd3cfeaa8bf062bc63380c6e2ee16ee654651b8b224ac3473226b1d2658",
            "0x70a18f80dd4ae3fb45451b72c56f4ca90773fe79ff8edcf9aff774c1ec5b6403"
          ],
          "data": "0x0000000000000000000000001840fcd5a8cc90f18d320477c691a038aa800b6b",
          "blockHash": "0x51ca6dcbf729e9db3b6603b7a2c303137f42019192f3494d7a95dc5df98958db",
          "blockNumber": "0xad6bfbd",
          "blockTimestamp": "0x68982aca",
          "transactionHash": "0xa58b2e0bea8abf9c3fb6826103d641a100adaea7adc6e549e0005f1ba856f5d9",
          "transactionIndex": "0x0",
          "logIndex": "0x1",
          "removed": false
        }
      ],
      "logsBloom": "0x00000000000000000000000000000000000000000000000000000000000000000000000000000200000002000000000000000000000000000000000000001000000000000000000000000008000000000000000000000000000000000000000000000000020000000000000000000800000200000000020000000010000000120000000000000800000000000400000000000000000000000000020000000000000000000000000000000000000000000008000000000000000000000000000000000002008000000000000000000000000000000100000000008000000020000000000000000000080000000000000000000000000000000000000000000000",
      "type": "0x2",
      "transactionHash": "0xa58b2e0bea8abf9c3fb6826103d641a100adaea7adc6e549e0005f1ba856f5d9",
      "transactionIndex": "0x0",
      "blockHash": "0x51ca6dcbf729e9db3b6603b7a2c303137f42019192f3494d7a95dc5df98958db",
      "blockNumber": "0xad6bfbd",
      "gasUsed": "0x7942b",
      "effectiveGasPrice": "0x1cac479",
      "blobGasPrice": "0x1",
      "from": "0x1840fcd5a8cc90f18d320477c691a038aa800b6b",
      "to": "0x22f2800aee94c9e57d76981bc13e7a3760d396d9",
      "contractAddress": null
    }
  ],
  "libraries": [],
  "pending": [],
  "returns": {},
  "timestamp": 1754802890,
  "chain": 421614,
  "commit": "0d324a2"
}