{
  "transactions": [
    {
      "hash": "0xb3cac4c1a3989c5459b442fc3e7a0c4cb65f1711fd0e80c30a1585aca3a32f8e",
      "transactionType": "CALL",
      "contractName": null,
      "contractAddress": "0x3b3cf7ee8dbcddd8b8451e38269d982f351ca3db",
      "function": "wrapPresent(address[],(address,uint256)[])",
      "arguments": [
        "[0x1840fCD5a8cC90F18d320477c691A038aa800B6B]",
        "[(0x0000000000000000000000000000000000000000, 500000000000000)]"
      ],
      "transaction": {
        "from": "0x1840fcd5a8cc90f18d320477c691a038aa800b6b",
        "to": "0x3b3cf7ee8dbcddd8b8451e38269d982f351ca3db",
        "value": "0x1c6bf52634000",
        "input": "0x4a6499f80000000000000000000000000000000000000000000000000000000000000040000000000000000000000000000000000000000000000000000000000000008000000000000000000000000000000000000000000000000000000000000000010000000000000000000000001840fcd5a8cc90f18d320477c691a038aa800b6b000000000000000000000000000000000000000000000000000000000000000100000000000000000000000000000000000000000000000000000000000000000000000000000000000000000000000000000000000000000001c6bf52634000",
        "nonce": "0x8",
        "chainId": "0x66eee"
      },
      "additionalContracts": [],
      "isFixedGasLimit": false
    }
  ],
  "receipts": [
    {
      "status": "0x1",
      "cumulativeGasUsed": "0x4a2c9",
      "logs": [
        {
          "address": "0x8260bb51092f058f4f234407f1075f09ab5832c9",
          "topics": [
            "0xddf252ad1be2c89b69c2b068fc378daa952ba7f163c4a11628f55a4df523b3ef",
            "0x0000000000000000000000000000000000000000000000000000000000000000",
            "0x0000000000000000000000001840fcd5a8cc90f18d320477c691a038aa800b6b",
            "0xb3c4bd7950fd00d5373654a541c7bec69a84841d81ea6464977e883759941ec8"
          ],
          "data": "0x",
          "blockHash": "0xffcf6ebe17e68c7b8b0543f8f2000e8ba3bf887e83022afccc6d1de9d80c3993",
          "blockNumber": "0xae1540c",
          "transactionHash": "0xb3cac4c1a3989c5459b442fc3e7a0c4cb65f1711fd0e80c30a1585aca3a32f8e",
          "transactionIndex": "0x1",
          "logIndex": "0x0",
          "removed": false
        },
        {
          "address": "0x3b3cf7ee8dbcddd8b8451e38269d982f351ca3db",
          "topics": [
            "0xf57d75a06786ec46ba529c7c6a4a8c5f0c1eae07a3a01fa6c75da0320a9f7588",
            "0xb3c4bd7950fd00d5373654a541c7bec69a84841d81ea6464977e883759941ec8"
          ],
          "data": "0x0000000000000000000000001840fcd5a8cc90f18d320477c691a038aa800b6b",
          "blockHash": "0xffcf6ebe17e68c7b8b0543f8f2000e8ba3bf887e83022afccc6d1de9d80c3993",
          "blockNumber": "0xae1540c",
          "transactionHash": "0xb3cac4c1a3989c5459b442fc3e7a0c4cb65f1711fd0e80c30a1585aca3a32f8e",
          "transactionIndex": "0x1",
          "logIndex": "0x1",
          "removed": false
        }
      ],
      "logsBloom": "0x0000000000000000000000000000000000000000000000000000000000000000000000000000000000000000000000000000000000000000000040000000000000000000000010000000000810000000000000000000000000000000000000000000000002000000a000002000000800000200000000000000000010000000000000000000000000000000000002000000000000000000000000020200000000000000000000000000000000000100000000001000000100000000000000000000000002000000000000000000000000000000000100000000000000000020000000000000000000000000000000000000002000000000000000000000000000",
      "type": "0x2",
      "transactionHash": "0xb3cac4c1a3989c5459b442fc3e7a0c4cb65f1711fd0e80c30a1585aca3a32f8e",
      "transactionIndex": "0x1",
      "blockHash": "0xffcf6ebe17e68c7b8b0543f8f2000e8ba3bf887e83022afccc6d1de9d80c3993",
      "blockNumber": "0xae1540c",
      "gasUsed": "0x4a2c9",
      "effectiveGasPrice": "0x5f5e100",
      "from": "0x1840fcd5a8cc90f18d320477c691a038aa800b6b",
      "to": "0x3b3cf7ee8dbcddd8b8451e38269d982f351ca3db",
      "contractAddress": null,
      "gasUsedForL1": "0x7",
      "l1BlockNumber": "0x889cd6",
      "timeboosted": false
    }
  ],
  "libraries": [],
  "pending": [],
  "returns": {},
  "timestamp": 1754818296,
  "chain": 421614,
  "commit": "bc12e55"
}