{
  "transactions": [
    {
      "hash": "0xa1f7500a0cd432ee75b27001b37cc6fff7ce05cd6a9d43317eabef80df280036",
      "transactionType": "CREATE",
      "contractName": "MockERC20",
      "contractAddress": "0xd8eee31d2495b2f772a80cb93f43c12caa0b948a",
      "function": null,
      "arguments": [
        "TestToken",
        "TT",
        "18"
      ],
      "transaction": {
        "from": "0x1840fcd5a8cc90f18d320477c691a038aa800b6b",
        "value": "0x0",
        "input": "0x608060405234801561000f575f5ffd5b50604051611a48380380611a48833981810160405281019061003191906101f5565b825f908161003f919061048d565b50816001908161004f919061048d565b508060025f6101000a81548160ff021916908360ff16021790555050505061055c565b5f604051905090565b5f5ffd5b5f5ffd5b5f5ffd5b5f5ffd5b5f601f19601f8301169050919050565b7f4e487b71000000000000000000000000000000000000000000000000000000005f52604160045260245ffd5b6100d18261008b565b810181811067ffffffffffffffff821117156100f0576100ef61009b565b5b80604052505050565b5f610102610072565b905061010e82826100c8565b919050565b5f67ffffffffffffffff82111561012d5761012c61009b565b5b6101368261008b565b9050602081019050919050565b8281835e5f83830152505050565b5f61016361015e84610113565b6100f9565b90508281526020810184848401111561017f5761017e610087565b5b61018a848285610143565b509392505050565b5f82601f8301126101a6576101a5610083565b5b81516101b6848260208601610151565b91505092915050565b5f60ff82169050919050565b6101d4816101bf565b81146101de575f5ffd5b50565b5f815190506101ef816101cb565b92915050565b5f5f5f6060848603121561020c5761020b61007b565b5b5f84015167ffffffffffffffff8111156102295761022861007f565b5b61023586828701610192565b935050602084015167ffffffffffffffff8111156102565761025561007f565b5b61026286828701610192565b9250506040610273868287016101e1565b9150509250925092565b5f81519050919050565b7f4e487b71000000000000000000000000000000000000000000000000000000005f52602260045260245ffd5b5f60028204905060018216806102cb57607f821691505b6020821081036102de576102dd610287565b5b50919050565b5f819050815f5260205f209050919050565b5f6020601f8301049050919050565b5f82821b905092915050565b5f600883026103407fffffffffffffffffffffffffffffffffffffffffffffffffffffffffffffffff82610305565b61034a8683610305565b95508019841693508086168417925050509392505050565b5f819050919050565b5f819050919050565b5f61038e61038961038484610362565b61036b565b610362565b9050919050565b5f819050919050565b6103a783610374565b6103bb6103b382610395565b848454610311565b825550505050565b5f5f905090565b6103d26103c3565b6103dd81848461039e565b505050565b5b81811015610400576103f55f826103ca565b6001810190506103e3565b5050565b601f82111561044557610416816102e4565b61041f846102f6565b8101602085101561042e578190505b61044261043a856102f6565b8301826103e2565b50505b505050565b5f82821c905092915050565b5f6104655f198460080261044a565b1980831691505092915050565b5f61047d8383610456565b9150826002028217905092915050565b6104968261027d565b67ffffffffffffffff8111156104af576104ae61009b565b5b6104b982546102b4565b6104c4828285610404565b5f60209050601f8311600181146104f5575f84156104e3578287015190505b6104ed8582610472565b865550610554565b601f198416610503866102e4565b5f5b8281101561052a57848901518255600182019150602085019450602081019050610505565b868310156105475784890151610543601f891682610456565b8355505b6001600288020188555050505b505050505050565b6114df806105695f395ff3fe608060405234801561000f575f5ffd5b50600436106100a7575f3560e01c806340c10f191161006f57806340c10f191461016557806370a082311461018157806395d89b41146101b15780639dc29fac146101cf578063a9059cbb146101eb578063dd62ed3e1461021b576100a7565b806306fdde03146100ab578063095ea7b3146100c957806318160ddd146100f957806323b872dd14610117578063313ce56714610147575b5f5ffd5b6100b361024b565b6040516100c09190610cd0565b60405180910390f35b6100e360048036038101906100de9190610d81565b6102d6565b6040516100f09190610dd9565b60405180910390f35b6101016102ec565b60405161010e9190610e01565b60405180910390f35b610131600480360381019061012c9190610e1a565b6102f2565b60405161013e9190610dd9565b60405180910390f35b61014f610319565b60405161015c9190610e85565b60405180910390f35b61017f600480360381019061017a9190610d81565b61032b565b005b61019b60048036038101906101969190610e9e565b610339565b6040516101a89190610e01565b60405180910390f35b6101b961037f565b6040516101c69190610cd0565b60405180910390f35b6101e960048036038101906101e49190610d81565b61040b565b005b61020560048036038101906102009190610d81565b610419565b6040516102129190610dd9565b60405180910390f35b61023560048036038101906102309190610ec9565b610434565b6040516102429190610e01565b60405180910390f35b5f805461025790610f34565b80601f016020809104026020016040519081016040528092919081815260200182805461028390610f34565b80156102ce5780601f106102a5576101008083540402835291602001916102ce565b820191905f5260205f20905b8154815290600101906020018083116102b157829003601f168201915b505050505081565b5f6102e23384846104b6565b6001905092915050565b60035481565b5f5f339050610302858285610679565b61030d858585610704565b60019150509392505050565b60025f9054906101000a900460ff1681565b6103358282610966565b5050565b5f60045f8373ffffffffffffffffffffffffffffffffffffffff1673ffffffffffffffffffffffffffffffffffffffff1681526020019081526020015f20549050919050565b6001805461038c90610f34565b80601f01602080910402602001604051908101604052809291908181526020018280546103b890610f34565b80156104035780601f106103da57610100808354040283529160200191610403565b820191905f5260205f20905b8154815290600101906020018083116103e657829003601f168201915b505050505081565b6104158282610aa8565b5050565b5f5f339050610429818585610704565b600191505092915050565b5f60055f8473ffffffffffffffffffffffffffffffffffffffff1673ffffffffffffffffffffffffffffffffffffffff1681526020019081526020015f205f8373ffffffffffffffffffffffffffffffffffffffff1673ffffffffffffffffffffffffffffffffffffffff1681526020019081526020015f2054905092915050565b5f73ffffffffffffffffffffffffffffffffffffffff168373ffffffffffffffffffffffffffffffffffffffff1603610524576040517f08c379a000000000000000000000000000000000000000000000000000000000815260040161051b90610fd4565b60405180910390fd5b5f73ffffffffffffffffffffffffffffffffffffffff168273ffffffffffffffffffffffffffffffffffffffff1603610592576040517f08c379a000000000000000000000000000000000000000000000000000000000815260040161058990611062565b60405180910390fd5b8060055f8573ffffffffffffffffffffffffffffffffffffffff1673ffffffffffffffffffffffffffffffffffffffff1681526020019081526020015f205f8473ffffffffffffffffffffffffffffffffffffffff1673ffffffffffffffffffffffffffffffffffffffff1681526020019081526020015f20819055508173ffffffffffffffffffffffffffffffffffffffff168373ffffffffffffffffffffffffffffffffffffffff167f8c5be1e5ebec7d5bd14f71427d1e84f3dd0314c0f7b2291e5b200ac8c7c3b9258360405161066c9190610e01565b60405180910390a3505050565b5f6106848484610434565b90507fffffffffffffffffffffffffffffffffffffffffffffffffffffffffffffffff81146106fe57818110156106f0576040517f08c379a00000000000000000000000000000000000000000000000000000000081526004016106e7906110ca565b60405180910390fd5b6106fd84848484036104b6565b5b50505050565b5f73ffffffffffffffffffffffffffffffffffffffff168373ffffffffffffffffffffffffffffffffffffffff1603610772576040517f08c379a000000000000000000000000000000000000000000000000000000000815260040161076990611158565b60405180910390fd5b5f73ffffffffffffffffffffffffffffffffffffffff168273ffffffffffffffffffffffffffffffffffffffff16036107e0576040517f08c379a00000000000000000000000000000000000000000000000000000000081526004016107d7906111e6565b60405180910390fd5b5f60045f8573ffffffffffffffffffffffffffffffffffffffff1673ffffffffffffffffffffffffffffffffffffffff1681526020019081526020015f2054905081811015610864576040517f08c379a000000000000000000000000000000000000000000000000000000000815260040161085b90611274565b60405180910390fd5b81810360045f8673ffffffffffffffffffffffffffffffffffffffff1673ffffffffffffffffffffffffffffffffffffffff1681526020019081526020015f20819055508160045f8573ffffffffffffffffffffffffffffffffffffffff1673ffffffffffffffffffffffffffffffffffffffff1681526020019081526020015f205f8282546108f491906112bf565b925050819055508273ffffffffffffffffffffffffffffffffffffffff168473ffffffffffffffffffffffffffffffffffffffff167fddf252ad1be2c89b69c2b068fc378daa952ba7f163c4a11628f55a4df523b3ef846040516109589190610e01565b60405180910390a350505050565b5f73ffffffffffffffffffffffffffffffffffffffff168273ffffffffffffffffffffffffffffffffffffffff16036109d4576040517f08c379a00000000000000000000000000000000000000000000000000000000081526004016109cb9061133c565b60405180910390fd5b8060035f8282546109e591906112bf565b925050819055508060045f8473ffffffffffffffffffffffffffffffffffffffff1673ffffffffffffffffffffffffffffffffffffffff1681526020019081526020015f205f828254610a3891906112bf565b925050819055508173ffffffffffffffffffffffffffffffffffffffff165f73ffffffffffffffffffffffffffffffffffffffff167fddf252ad1be2c89b69c2b068fc378daa952ba7f163c4a11628f55a4df523b3ef83604051610a9c9190610e01565b60405180910390a35050565b5f73ffffffffffffffffffffffffffffffffffffffff168273ffffffffffffffffffffffffffffffffffffffff1603610b16576040517f08c379a0000000000000000000000000000000000000000000000000000000008152600401610b0d906113ca565b60405180910390fd5b5f60045f8473ffffffffffffffffffffffffffffffffffffffff1673ffffffffffffffffffffffffffffffffffffffff1681526020019081526020015f2054905081811015610b9a576040517f08c379a0000000000000000000000000000000000000000000000000000000008152600401610b9190611458565b60405180910390fd5b81810360045f8573ffffffffffffffffffffffffffffffffffffffff1673ffffffffffffffffffffffffffffffffffffffff1681526020019081526020015f20819055508160035f828254610bef9190611476565b925050819055505f73ffffffffffffffffffffffffffffffffffffffff168373ffffffffffffffffffffffffffffffffffffffff167fddf252ad1be2c89b69c2b068fc378daa952ba7f163c4a11628f55a4df523b3ef84604051610c539190610e01565b60405180910390a3505050565b5f81519050919050565b5f82825260208201905092915050565b8281835e5f83830152505050565b5f601f19601f8301169050919050565b5f610ca282610c60565b610cac8185610c6a565b9350610cbc818560208601610c7a565b610cc581610c88565b840191505092915050565b5f6020820190508181035f830152610ce88184610c98565b905092915050565b5f5ffd5b5f73ffffffffffffffffffffffffffffffffffffffff82169050919050565b5f610d1d82610cf4565b9050919050565b610d2d81610d13565b8114610d37575f5ffd5b50565b5f81359050610d4881610d24565b92915050565b5f819050919050565b610d6081610d4e565b8114610d6a575f5ffd5b50565b5f81359050610d7b81610d57565b92915050565b5f5f60408385031215610d9757610d96610cf0565b5b5f610da485828601610d3a565b9250506020610db585828601610d6d565b9150509250929050565b5f8115159050919050565b610dd381610dbf565b82525050565b5f602082019050610dec5f830184610dca565b92915050565b610dfb81610d4e565b82525050565b5f602082019050610e145f830184610df2565b92915050565b5f5f5f60608486031215610e3157610e30610cf0565b5b5f610e3e86828701610d3a565b9350506020610e4f86828701610d3a565b9250506040610e6086828701610d6d565b9150509250925092565b5f60ff82169050919050565b610e7f81610e6a565b82525050565b5f602082019050610e985f830184610e76565b92915050565b5f60208284031215610eb357610eb2610cf0565b5b5f610ec084828501610d3a565b91505092915050565b5f5f60408385031215610edf57610ede610cf0565b5b5f610eec85828601610d3a565b9250506020610efd85828601610d3a565b9150509250929050565b7f4e487b71000000000000000000000000000000000000000000000000000000005f52602260045260245ffd5b5f6002820490506001821680610f4b57607f821691505b602082108103610f5e57610f5d610f07565b5b50919050565b7f45524332303a20617070726f76652066726f6d20746865207a65726f206164645f8201527f7265737300000000000000000000000000000000000000000000000000000000602082015250565b5f610fbe602483610c6a565b9150610fc982610f64565b604082019050919050565b5f6020820190508181035f830152610feb81610fb2565b9050919050565b7f45524332303a20617070726f766520746f20746865207a65726f2061646472655f8201527f7373000000000000000000000000000000000000000000000000000000000000602082015250565b5f61104c602283610c6a565b915061105782610ff2565b604082019050919050565b5f6020820190508181035f83015261107981611040565b9050919050565b7f45524332303a20696e73756666696369656e7420616c6c6f77616e63650000005f82015250565b5f6110b4601d83610c6a565b91506110bf82611080565b602082019050919050565b5f6020820190508181035f8301526110e1816110a8565b9050919050565b7f45524332303a207472616e736665722066726f6d20746865207a65726f2061645f8201527f6472657373000000000000000000000000000000000000000000000000000000602082015250565b5f611142602583610c6a565b915061114d826110e8565b604082019050919050565b5f6020820190508181035f83015261116f81611136565b9050919050565b7f45524332303a207472616e7366657220746f20746865207a65726f20616464725f8201527f6573730000000000000000000000000000000000000000000000000000000000602082015250565b5f6111d0602383610c6a565b91506111db82611176565b604082019050919050565b5f6020820190508181035f8301526111fd816111c4565b9050919050565b7f45524332303a207472616e7366657220616d6f756e74206578636565647320625f8201527f616c616e63650000000000000000000000000000000000000000000000000000602082015250565b5f61125e602683610c6a565b915061126982611204565b604082019050919050565b5f6020820190508181035f83015261128b81611252565b9050919050565b7f4e487b71000000000000000000000000000000000000000000000000000000005f52601160045260245ffd5b5f6112c982610d4e565b91506112d483610d4e565b92508282019050808211156112ec576112eb611292565b5b92915050565b7f45524332303a206d696e7420746f20746865207a65726f2061646472657373005f82015250565b5f611326601f83610c6a565b9150611331826112f2565b602082019050919050565b5f6020820190508181035f8301526113538161131a565b9050919050565b7f45524332303a206275726e2066726f6d20746865207a65726f206164647265735f8201527f7300000000000000000000000000000000000000000000000000000000000000602082015250565b5f6113b4602183610c6a565b91506113bf8261135a565b604082019050919050565b5f6020820190508181035f8301526113e1816113a8565b9050919050565b7f45524332303a206275726e20616d6f756e7420657863656564732062616c616e5f8201527f6365000000000000000000000000000000000000000000000000000000000000602082015250565b5f611442602283610c6a565b915061144d826113e8565b604082019050919050565b5f6020820190508181035f83015261146f81611436565b9050919050565b5f61148082610d4e565b915061148b83610d4e565b92508282039050818111156114a3576114a2611292565b5b9291505056fea2646970667358221220923cfad05a9ce4fe5eee54b54475a3ac05e1647989c4d86364d4d3bc432702c064736f6c634300081e0033000000000000000000000000000000000000000000000000000000000000006000000000000000000000000000000000000000000000000000000000000000a00000000000000000000000000000000000000000000000000000000000000012000000000000000000000000000000000000000000000000000000000000000954657374546f6b656e000000000000000000000000000000000000000000000000000000000000000000000000000000000000000000000000000000000000025454000000000000000000000000000000000000000000000000000000000000",
        "nonce": "0x9",
        "chainId": "0x66eee"
      },
      "additionalContracts": [],
      "isFixedGasLimit": false
    },
    {
      "hash": "0x74af6897edb7f8ecb0747dfb38ed97639c8c5cb13750e5f15478286bac0541a5",
      "transactionType": "CALL",
      "contractName": "MockERC20",
      "contractAddress": "0xd8eee31d2495b2f772a80cb93f43c12caa0b948a",
      "function": "mint(address,uint256)",
      "arguments": [
        "0x1840fCD5a8cC90F18d320477c691A038aa800B6B",
        "1000000000000000000000000"
      ],
      "transaction": {
        "from": "0x1840fcd5a8cc90f18d320477c691a038aa800b6b",
        "to": "0xd8eee31d2495b2f772a80cb93f43c12caa0b948a",
        "value": "0x0",
        "input": "0x40c10f190000000000000000000000001840fcd5a8cc90f18d320477c691a038aa800b6b00000000000000000000000000000000000000000000d3c21bcecceda1000000",
        "nonce": "0xa",
        "chainId": "0x66eee"
      },
      "additionalContracts": [],
      "isFixedGasLimit": false
    },
    {
      "hash": "0x44136b5f1bd8c958c0638c468ef7f47214a10135671006d98c2ca55328c8a891",
      "transactionType": "CALL",
      "contractName": "MockERC20",
      "contractAddress": "0xd8eee31d2495b2f772a80cb93f43c12caa0b948a",
      "function": "approve(address,uint256)",
      "arguments": [
        "0x3B3cF7ee8dbCDDd8B8451e38269D982F351ca3db",
        "115792089237316195423570985008687907853269984665640564039457584007913129639935"
      ],
      "transaction": {
        "from": "0x1840fcd5a8cc90f18d320477c691a038aa800b6b",
        "to": "0xd8eee31d2495b2f772a80cb93f43c12caa0b948a",
        "value": "0x0",
        "input": "0x095ea7b30000000000000000000000003b3cf7ee8dbcddd8b8451e38269d982f351ca3dbffffffffffffffffffffffffffffffffffffffffffffffffffffffffffffffff",
        "nonce": "0xb",
        "chainId": "0x66eee"
      },
      "additionalContracts": [],
      "isFixedGasLimit": false
    },
    {
      "hash": "0x6fc0c594ff79e040ce74a0fcdbff7d58f8d8d98251ced7dfa67b3363cbf91c37",
      "transactionType": "CALL",
      "contractName": null,
      "contractAddress": "0x3b3cf7ee8dbcddd8b8451e38269d982f351ca3db",
      "function": "wrapPresentTest(address[],string,string,(address,uint256)[])",
      "arguments": [
        "[0x1840fCD5a8cC90F18d320477c691A038aa800B6B]",
        "ERC20 Gift",
        "Test token wrapped via script",
        "[(0xD8EEE31D2495B2F772a80CB93F43c12cAA0B948a, 1234000000000000000000)]"
      ],
      "transaction": {
        "from": "0x1840fcd5a8cc90f18d320477c691a038aa800b6b",
        "to": "0x3b3cf7ee8dbcddd8b8451e38269d982f351ca3db",
        "value": "0x0",
        "input": "0x2dc2bada000000000000000000000000000000000000000000000000000000000000008000000000000000000000000000000000000000000000000000000000000000c00000000000000000000000000000000000000000000000000000000000000100000000000000000000000000000000000000000000000000000000000000014000000000000000000000000000000000000000000000000000000000000000010000000000000000000000001840fcd5a8cc90f18d320477c691a038aa800b6b000000000000000000000000000000000000000000000000000000000000000a4552433230204769667400000000000000000000000000000000000000000000000000000000000000000000000000000000000000000000000000000000001d5465737420746f6b656e207772617070656420766961207363726970740000000000000000000000000000000000000000000000000000000000000000000001000000000000000000000000d8eee31d2495b2f772a80cb93f43c12caa0b948a000000000000000000000000000000000000000000000042e530adfce0080000",
        "nonce": "0xc",
        "chainId": "0x66eee"
      },
      "additionalContracts": [],
      "isFixedGasLimit": false
    }
  ],
  "receipts": [
    {
      "status": "0x1",
      "cumulativeGasUsed": "0x1e4812",
      "logs": [],
      "logsBloom": "0x00000000000000000000000000000000000000000000000000000000000000000000000000000000000000000000000000000000000000000000000000000000000000000000000000000000000000000000000000000000000000000000000000000000000000000000000000000000000000000000000000000000000000000000000000000000000000000000000000000000000000000000000000000000000000000000000000000000000000000000000000000000000000000000000000000000000000000000000000000000000000000000000000000000000000000000000000000000000000000000000000000000000000000000000000000000",
      "type": "0x2",
      "transactionHash": "0xa1f7500a0cd432ee75b27001b37cc6fff7ce05cd6a9d43317eabef80df280036",
      "transactionIndex": "0x4",
      "blockHash": "0x2c6d55404be4bfcc3342551981c66dfed0e5d356e75b0d9ad52423eb63e3b5c2",
      "blockNumber": "0xae15614",
      "gasUsed": "0x13be5a",
      "effectiveGasPrice": "0x5f5e100",
      "from": "0x1840fcd5a8cc90f18d320477c691a038aa800b6b",
      "to": null,
      "contractAddress": "0xd8eee31d2495b2f772a80cb93f43c12caa0b948a",
      "gasUsedForL1": "0x4c",
      "l1BlockNumber": "0x889ce1",
      "timeboosted": false
    },
    {
      "status": "0x1",
      "cumulativeGasUsed": "0x10d88",
      "logs": [
        {
          "address": "0xd8eee31d2495b2f772a80cb93f43c12caa0b948a",
          "topics": [
            "0xddf252ad1be2c89b69c2b068fc378daa952ba7f163c4a11628f55a4df523b3ef",
            "0x0000000000000000000000000000000000000000000000000000000000000000",
            "0x0000000000000000000000001840fcd5a8cc90f18d320477c691a038aa800b6b"
          ],
          "data": "0x00000000000000000000000000000000000000000000d3c21bcecceda1000000",
          "blockHash": "0x1e47ee18880b9fa8652f7b9082aa9c3c7b82d24298f4819c39dd36be8b399740",
          "blockNumber": "0xae1561e",
          "transactionHash": "0x74af6897edb7f8ecb0747dfb38ed97639c8c5cb13750e5f15478286bac0541a5",
          "transactionIndex": "0x1",
          "logIndex": "0x0",
          "removed": false
        }
      ],
      "logsBloom": "0x00000000000000000000000000000000000000000000000000000000000000000000000000000000000000000000000000000000000000000000000000000000000000000000000000000008000000000000000000000000000000000000000000000000020000000000000000000800000200100000000000000010000000000080000000000000000000000000000000000000000000000000020000000000000000000000000000000000000000000000000000000000000000000000000000000002000000000000000000000000000000000100000000000000000020000000000000000000000000008000000000000000000000000000000000000000",
      "type": "0x2",
      "transactionHash": "0x74af6897edb7f8ecb0747dfb38ed97639c8c5cb13750e5f15478286bac0541a5",
      "transactionIndex": "0x1",
      "blockHash": "0x1e47ee18880b9fa8652f7b9082aa9c3c7b82d24298f4819c39dd36be8b399740",
      "blockNumber": "0xae1561e",
      "gasUsed": "0x10d88",
      "effectiveGasPrice": "0x5f5e100",
      "from": "0x1840fcd5a8cc90f18d320477c691a038aa800b6b",
      "to": "0xd8eee31d2495b2f772a80cb93f43c12caa0b948a",
      "contractAddress": null,
      "gasUsedForL1": "0x4",
      "l1BlockNumber": "0x889ce1",
      "timeboosted": false
    },
    {
      "status": "0x1",
      "cumulativeGasUsed": "0x2b84e",
      "logs": [
        {
          "address": "0xd8eee31d2495b2f772a80cb93f43c12caa0b948a",
          "topics": [
            "0x8c5be1e5ebec7d5bd14f71427d1e84f3dd0314c0f7b2291e5b200ac8c7c3b925",
            "0x0000000000000000000000001840fcd5a8cc90f18d320477c691a038aa800b6b",
            "0x0000000000000000000000003b3cf7ee8dbcddd8b8451e38269d982f351ca3db"
          ],
          "data": "0xffffffffffffffffffffffffffffffffffffffffffffffffffffffffffffffff",
          "blockHash": "0x601c51271c9d4e0ccdf3f142cffea191d8be4ee73ae6e47cb7b4ebcf4164f0ac",
          "blockNumber": "0xae15627",
          "transactionHash": "0x44136b5f1bd8c958c0638c468ef7f47214a10135671006d98c2ca55328c8a891",
          "transactionIndex": "0x2",
          "logIndex": "0x3",
          "removed": false
        }
      ],
      "logsBloom": "0x00000000000000000000000000000000000000000000000000000000000000020000000000000000000000000000000000000000000000000000000000200000000000000000000000000000000000000000000000000000000000000000000000000000000000000000000000000000000200100000000000000000000000000080000000000000000000000000000000000000000000000000020000004000020400000000000000000000000000000000000000000000000000000000000000000000000000000000000000000000000000000100000000000000000000000010000000000000000000008000000000000000000000000000000000000000",
      "type": "0x2",
      "transactionHash": "0x44136b5f1bd8c958c0638c468ef7f47214a10135671006d98c2ca55328c8a891",
      "transactionIndex": "0x2",
      "blockHash": "0x601c51271c9d4e0ccdf3f142cffea191d8be4ee73ae6e47cb7b4ebcf4164f0ac",
      "blockNumber": "0xae15627",
      "gasUsed": "0xb81e",
      "effectiveGasPrice": "0x5f5e100",
      "from": "0x1840fcd5a8cc90f18d320477c691a038aa800b6b",
      "to": "0xd8eee31d2495b2f772a80cb93f43c12caa0b948a",
      "contractAddress": null,
      "gasUsedForL1": "0x4",
      "l1BlockNumber": "0x889ce1",
      "timeboosted": false
    },
    {
      "status": "0x1",
      "cumulativeGasUsed": "0x624e3",
      "logs": [
        {
          "address": "0xd8eee31d2495b2f772a80cb93f43c12caa0b948a",
          "topics": [
            "0xddf252ad1be2c89b69c2b068fc378daa952ba7f163c4a11628f55a4df523b3ef",
            "0x0000000000000000000000001840fcd5a8cc90f18d320477c691a038aa800b6b",
            "0x0000000000000000000000003b3cf7ee8dbcddd8b8451e38269d982f351ca3db"
          ],
          "data": "0x000000000000000000000000000000000000000000000042e530adfce0080000",
          "blockHash": "0x336c84cc8f5838baa4ce9af5cd6278fc0c37f05da1cf7d3cfe79ad1fd842b6a5",
          "blockNumber": "0xae15630",
          "transactionHash": "0x6fc0c594ff79e040ce74a0fcdbff7d58f8d8d98251ced7dfa67b3363cbf91c37",
          "transactionIndex": "0x1",
          "logIndex": "0x0",
          "removed": false
        },
        {
          "address": "0x8260bb51092f058f4f234407f1075f09ab5832c9",
          "topics": [
            "0xddf252ad1be2c89b69c2b068fc378daa952ba7f163c4a11628f55a4df523b3ef",
            "0x0000000000000000000000000000000000000000000000000000000000000000",
            "0x0000000000000000000000001840fcd5a8cc90f18d320477c691a038aa800b6b",
            "0x4972051a2727d54644a127bf3b673015d782d3e90a40cc75ad5962f4f8afc37c"
          ],
          "data": "0x",
          "blockHash": "0x336c84cc8f5838baa4ce9af5cd6278fc0c37f05da1cf7d3cfe79ad1fd842b6a5",
          "blockNumber": "0xae15630",
          "transactionHash": "0x6fc0c594ff79e040ce74a0fcdbff7d58f8d8d98251ced7dfa67b3363cbf91c37",
          "transactionIndex": "0x1",
          "logIndex": "0x1",
          "removed": false
        },
        {
          "address": "0x3b3cf7ee8dbcddd8b8451e38269d982f351ca3db",
          "topics": [
            "0xe4315bd3cfeaa8bf062bc63380c6e2ee16ee654651b8b224ac3473226b1d2658",
            "0x4972051a2727d54644a127bf3b673015d782d3e90a40cc75ad5962f4f8afc37c"
          ],
          "data": "0x0000000000000000000000001840fcd5a8cc90f18d320477c691a038aa800b6b",
          "blockHash": "0x336c84cc8f5838baa4ce9af5cd6278fc0c37f05da1cf7d3cfe79ad1fd842b6a5",
          "blockNumber": "0xae15630",
          "transactionHash": "0x6fc0c594ff79e040ce74a0fcdbff7d58f8d8d98251ced7dfa67b3363cbf91c37",
          "transactionIndex": "0x1",
          "logIndex": "0x2",
          "removed": false
        }
      ],
      "logsBloom": "0x00000000000000000000000000000000000000000000000000000000000000020000000000400000000000000000000000000000000000000000000000000000000000000000000000000008100000000000000000000000000000000000000000000000020000008000002000000800000200100000000000000010020000020080000000000000000000000000000000000000000000000000020000004000000400000000000000000000000100000000001000000000000000000000000000000002000000000000000000020000000000000100000000008000000020000000000000000000080000008000000000002000000000000000000000000000",
      "type": "0x2",
      "transactionHash": "0x6fc0c594ff79e040ce74a0fcdbff7d58f8d8d98251ced7dfa67b3363cbf91c37",
      "transactionIndex": "0x1",
      "blockHash": "0x336c84cc8f5838baa4ce9af5cd6278fc0c37f05da1cf7d3cfe79ad1fd842b6a5",
      "blockNumber": "0xae15630",
      "gasUsed": "0x624e3",
      "effectiveGasPrice": "0x5f5e100",
      "from": "0x1840fcd5a8cc90f18d320477c691a038aa800b6b",
      "to": "0x3b3cf7ee8dbcddd8b8451e38269d982f351ca3db",
      "contractAddress": null,
      "gasUsedForL1": "0x9",
      "l1BlockNumber": "0x889ce1",
      "timeboosted": false
    }
  ],
  "libraries": [],
  "pending": [],
  "returns": {},
  "timestamp": 1754818433,
  "chain": 421614,
  "commit": "bc12e55"
}